:100000000C9462000C948A000C948A000C948A0070
:100010000C948A000C948A000C948A000C948A0038
:100020000C948A000C94C7030C948A000C948A00E8
:100030000C948A000C94A8030C948A000C948A00F7
:100040000C94CA060C948A000C948A000C948A00C2
:100050000C948A000C948A000C948A000C948A00F8
:100060000C948A000C948A00000000080002010031
:100070000003040700000000000000000102040863
:100080001020408001020408102001020408102002
:10009000040404040404040402020202020203032E
:1000A00003030303000000002300260029000000D2
:1000B0000000250028002B0000000000240027007D
:1000C0002A00810311241FBECFEFD8E0DEBFCDBFD1
:1000D00011E0A0E0B1E0EEEAF3E102C005900D927C
:1000E000A631B107D9F728E0A6E1B1E001C01D9221
:1000F000A937B207E1F710E0C4ECD0E004C02297C2
:10010000FE010E945D09C23CD107C9F70E947B062F
:100110000C94D5090C9400000F93CF93DF93EC015E
:10012000888100E026E043E064E381500E94780586
:10013000888124E041E067E383500E94780588814C
:1001400023E041E068E382500E947805888124E042
:1001500041E067E38D5F0E947805888123E041E0FC
:1001600068E38E5F0E947805DF91CF910F9108952B
:100170000F93CF93DF93EC018A81882309F44DC05C
:1001800080E10E94D205BC01882777FD8095982FD9
:100190000E944F0823E333E34BE151E40E94B4078C
:1001A00020E030E040EE50E40E9450070E941C081E
:1001B0007E836D83288139812617370771F1CE013F
:1001C0000E948C008D8103E026E043E064E38150CF
:1001D0000E9478058D8124E041E067E383500E940E
:1001E00078058D8101E023E041E068E382500E94C0
:1001F00078058D8103E024E041E067E38D5F0E9494
:1002000078058D8101E023E041E068E38E5F0E9484
:1002100078058D819E8199838883DF91CF910F919D
:100220000895EF92FF920F931F93CF93DF937C017A
:10023000FC01C281D381CC33D10504F502E022E078
:1002400042E06C2F81E00E9478051C2F1E5F00E0C9
:1002500022E042E0612F81E00E94780502E022E086
:1002600042E06C2F85E70E94780500E022E042E042
:10027000612F85E70E9478052496DDCFF701828102
:1002800093810196181619061CF48DEF9FEFF70164
:1002900093838283DF91CF911F910F91FF90EF9015
:1002A00008950F93CF93DF93EC01888199816AE0E1
:1002B00070E00E94FB08892B19F4CE010E94110105
:1002C00002E02CE341E060E080E00E9478052CE34E
:1002D00041E060E083E00E9478052CE341E060E0CB
:1002E00084E70E9478052CE341E060E087E70E9404
:1002F000780588819981019699838883DF91CF91D0
:100300000F9108958F929F92AF92BF92CF92DF92FA
:10031000EF92FF920F931F93CF93DF93EC0102961E
:100320000E94B800CE0109960E9451015E01C12CC5
:10033000D12C4AE0842E912C7E01EC0CFD1CD701BF
:1003400050968C9150978823A9F11D968C9190E03E
:100350000196B4010E94FB08F7018587892B29F5D6
:10036000D5011F966C911F9762501E968C9100E0EC
:1003700022E045E082500E947805F701678581E020
:10038000860F8787868501E023E045E082500E9442
:100390007805D7011F966C911F9762501E968C911D
:1003A00025E043E081500E947805F701878580347D
:1003B00008F0108AF4E0CF0ED11C24E0A20EB11C8C
:1003C00088E1C816D10409F0B7CF88818F5F888390
:1003D00081112EC0898190E0019666E070E00E9454
:1003E000FB08898380E090E0E12CF12CFE01E80F0E
:1003F000F91F208921111FC0EE0CFF1CEE0CFF1C01
:10040000ADE0EA0EF11CEC0EFD1E81E0F7018383E6
:1004100012822EE630E040E050E06AE070E080E0DA
:1004200090E00E94AE06D70111966C9311971C9232
:1004300080E090E017C0BFEFEB1AFB0A0496E6E0FD
:10044000EE16F10499F6F4CF468550E02F813885F9
:10045000BA01625071092617370764F4049688318F
:10046000910571F0FE01E80FF91F27852553233010
:10047000A8F7EACF4E5F5F4F421753077CF30AC0DD
:100480008DE00E945106019709F0E5C08FA9811106
:10049000E2C002C01C82E2CF81E08FAB8CEB92E025
:1004A0000E94C4058C81882331F14F8158852D81AC
:1004B0003E818EA1882349F08CA5882349F08AA922
:1004C000811119C082E090E005C080E090E002C098
:1004D00081E090E066E0689FF001699FF00D1124D3
:1004E000B596EC0FFD1F81E0818353834283C901E0
:1004F0000397958384837E01F6E2EF0EF11C93E06F
:10050000C92ED12C2AE0A22EB12CD7018C918823A0
:1005100059F1F701829190E00196B5010E94FB0824
:100520008083892BC9F4F701638174816350710959
:100530007483638302E023E041E081810E947805B7
:10054000D70113966C9113976D5F00E023E041E0B3
:1005500011968C910E947805F701838194818D3FDB
:100560009F4F14F4D7011C92B1E0CB1AD108E6E0FA
:10057000EE0EF11CC114D10441F65E01F2E1AF0EA2
:10058000B11C7E0110E4D70196968C91882309F462
:100590004EC020E030E0C12CD12CFE01E20FF31F51
:1005A00080898823D9F1868590E0D70197964D916F
:1005B0005C919897841B950B0296059778F5878533
:1005C00090E099964D915C919A97841B950B0296B9
:1005D000059720F5CC0CDD1CCC0CDD1CBDE0CB0E52
:1005E000D11CCC0EDD1EF60162816250818100E0DB
:1005F00025E045E082500E947805D60113961C92B2
:10060000139712961C9323E041E0F70161A587A19F
:100610000E947805D70196961C9209C0BFEFCB1AAD
:10062000DB0A2C5F3F4F2831310509F0B6CFE6E0F9
:10063000EE0EF11CEA14FB0409F0A5CFDF91CF9177
:100640001F910F91FF90EF90DF90CF90BF90AF90F0
:100650009F908F9008958DE00E94510621E00197B0
:1006600009F020E02FAB47CF81E00E94210580E018
:100670000E94660560E08DE00C941806CF93DF932E
:10068000CDB7DEB761970FB6F894DEBF0FBECDBF12
:1006900089E291E00E94820181E1E5E0F1E0DE0182
:1006A000119601900D928A95E1F7809116018F5F66
:1006B00062E30E94DB0890931601911119C08091AA
:1006C0001701E1E0F0E0EC0FFD1FE80FF11D808164
:1006D0002AE0829FC00111240E94C4058091170165
:1006E0008F5F90E061E170E00E94E708809317015E
:1006F00061960FB6F894DEBF0FBECDBFDF91CF91EC
:10070000089510922C0110922B0181E080932D010D
:1007100084E390E090932F0180932E011092330197
:10072000109232018DEF9FEF909335018093340149
:1007300010926001109216011092170181E1E5E01C
:10074000F1E0A8E1B1E001900D928A95E1F70895FA
:100750001F920F920FB60F9211248F939F938FEFDA
:1007600080936B088AE58093690880916C0890916A
:100770006D08019690936D0880936C0810926A083A
:100780009F918F910F900FBE0F901F9018951F9201
:100790000F920FB60F9211240F931F932F934F9325
:1007A0005F938F939F93EF93FF9380916E08EFE693
:1007B000F8E00081803031F0003059F421E026B9B2
:1007C000808309C00000000000000000000000005D
:1007D00002C00A95008380916908882321F0815026
:1007E0008093690820C180916A088C3308F01BC18E
:1007F000009146000D5F07700E94FE03FF91EF918C
:100800003596E00F09940000000000000000000091
:10081000000000009EE1899FF0011124EF59FE4F76
:1008200044E001910BB9049F0BB8049E0BB8049EE1
:100830000BB801910BB9049F0BB8049E0BB8049E32
:100840000BB801910BB9049F0BB8049E0BB8049E22
:100850000BB801910BB9049F0BB8049E0BB8049E12
:100860000BB801910BB9049F0BB8049E0BB8049E02
:100870000BB801910BB9049F0BB8049E0BB8049EF2
:100880000BB801910BB9049F0BB8049E0BB8049EE2
:100890000BB801910BB9049F0BB8049E0BB8049ED2
:1008A0000BB801910BB9049F0BB8049E0BB8049EC2
:1008B0000BB801910BB9049F0BB8049E0BB8049EB2
:1008C0000BB801910BB9049F0BB8049E0BB8049EA2
:1008D0000BB801910BB9049F0BB8049E0BB8049E92
:1008E0000BB801910BB9049F0BB8049E0BB8049E82
:1008F0000BB801910BB9049F0BB8049E0BB8049E72
:100900000BB801910BB9049F0BB8049E0BB8049E61
:100910000BB801910BB9049F0BB8049E0BB8049E51
:100920000BB801910BB9049F0BB8049E0BB8049E41
:100930000BB801910BB9049F0BB8049E0BB8049E31
:100940000BB801910BB9049F0BB8049E0BB8049E21
:100950000BB801910BB9049F0BB8049E0BB8049E11
:100960000BB801910BB9049F0BB8049E0BB8049E01
:100970000BB801910BB9049F0BB8049E0BB8049EF1
:100980000BB801910BB9049F0BB8049E0BB8049EE1
:100990000BB801910BB9049F0BB8049E0BB8049ED1
:1009A0000BB801910BB9049F0BB8049E0BB8049EC1
:1009B0000BB801910BB9049F0BB8049E0BB8049EB1
:1009C0000BB801910BB9049F0BB8049E0BB8049EA1
:1009D0000BB801910BB9049F0BB8049E0BB8049E91
:1009E0000BB801910BB9049F0BB8049E0BB8049E81
:1009F0000BB801910BB9049F0BB8049E0BB8049E71
:100A00000BB8000000E00BB980916B088F5F8093FA
:100A10006B08853041F48FEF80936B0880916A08F2
:100A20008F5F80936A08FF91EF919F918F915F9103
:100A30004F912F911F910F910F900FBE0F901F900C
:100A40001895CF93F894882321F061E08EE00E94FE
:100A5000180610926E0014BCC1E0C5BD17BC18BCCE
:100A600016BC61E089E00E94180682E8809380004D
:100A70008DE18093810083E091E0909387008093E3
:100A800086001092890010928800C6BBC0936F0048
:100A900061E083E00E94180683E28093B0008AE060
:100AA0008093B1008FE38093B30087E08093B4001C
:100AB000C7BBC093700061E086E00E94180661E049
:100AC00087E00E9418067894CF9108958370982F3C
:100AD000990F990F982B892F8295807F892BE1E6BA
:100AE000F1E098E0E936F90711F08193FACF089523
:100AF000AF92BF92CF92DF92EF92FF920F931F932C
:100B0000CF93DF93260F480F53E0E52EF12C10E032
:100B1000621779F19EE1699FE0011124982F9417E3
:100B200031F1983710F56C3300F5A92FB0E0FD01D5
:100B3000F595E795F595E795EC0FFD1FEF59FE4FFD
:100B4000A095B095A370AA0F67010A2E01C0CC0C26
:100B50000A94EAF7C0943081C322580102C0AA0C5B
:100B6000BB1CAA95E2F7CA28C0829F5FD8CF6F5FEF
:100B7000CFCFDF91CF911F910F91FF90EF90DF903A
:100B8000CF90BF90AF9008959C0140E050E069E0A5
:100B90007DE380E090E00E940F0920936F0820938E
:100BA0006E0808958E3008F08E50877020910401F1
:100BB00090E4299F90011124822B80937C008091E6
:100BC0007A00806480937A0080917A0086FDFCCF61
:100BD000809178002091790090E0922B08958330E5
:100BE00081F028F4813099F08230A1F008958730A7
:100BF000A9F08830B9F08430D1F4809180008F7DE5
:100C000003C0809180008F7780938000089584B521
:100C10008F7702C084B58F7D84BD08958091B00028
:100C20008F7703C08091B0008F7D8093B0000895CE
:100C3000CF93DF9390E0FC01E458FF4F2491FC0137
:100C4000E057FF4F8491882349F190E0880F991F66
:100C5000FC01E854FF4FA591B49182559F4FFC01D0
:100C6000C591D4919FB7611108C0F8948C912095DB
:100C700082238C93888182230AC0623051F4F894D5
:100C80008C91322F309583238C938881822B88839B
:100C900004C0F8948C91822B8C939FBFDF91CF91ED
:100CA0000895CF93DF93282F30E0F901E859FF4FE3
:100CB0008491F901E458FF4FD491F901E057FF4FB7
:100CC000C491CC2391F081110E94EF05EC2FF0E04C
:100CD000EE0FFF1FEC55FF4FA591B4912C912D23E2
:100CE00081E090E021F480E002C080E090E0DF91BC
:100CF000CF91089508950E9414070E947A060E94D9
:100D00003403C0E0D0E00E943E032097E1F30E944C
:100D10000000F9CFCF93DF9300D000D0CDB7DEB77E
:100D20009B01AC01611571058105910569F069832D
:100D30003A834B835C830E94BF0929813A814B81AE
:100D40005C810E940F0903C060E070E0CB010F904E
:100D50000F900F900F90DF91CF910895CF92DF9277
:100D6000EF92FF926B017C0162177307840795076E
:100D700064F4CA01B9016C197D098E099F090E94AA
:100D80008A066C0D7D1D8E1D9F1DFF90EF90DF90DC
:100D9000CF9008951F920F920FB60F9211242F93A8
:100DA0003F938F939F93AF93BF93809171089091DE
:100DB0007208A0917308B09174083091700823E014
:100DC000230F2D3720F40196A11DB11D05C026E883
:100DD000230F0296A11DB11D209370088093710806
:100DE00090937208A0937308B0937408809175086B
:100DF00090917608A0917708B09178080196A11D8E
:100E0000B11D8093750890937608A0937708B093EE
:100E10007808BF91AF919F918F913F912F910F9043
:100E20000FBE0F901F901895789484B5826084BD92
:100E300084B5816084BD85B5826085BD85B58160DE
:100E400085BDEEE6F0E0808181608083E1E8F0E03E
:100E50001082808182608083808181608083E0E86D
:100E6000F0E0808181608083E1EBF0E0808184604C
:100E70008083E0EBF0E0808181608083EAE7F0E04E
:100E800080818460808380818260808380818160B2
:100E900080838081806880831092C10008955058BB
:100EA000BB27AA270ED04DC13ED130F043D120F050
:100EB00031F49F3F11F41EF433C10EF4E095E7FBCB
:100EC00029C1E92F4FD180F3BA176207730784074E
:100ED000950718F071F49EF567C10EF4E0950B2E9E
:100EE000BA2FA02D0B01B90190010C01CA01A0017C
:100EF0001124FF27591B99F0593F50F4503E68F1D7
:100F00001A16F040A22F232F342F4427585FF3CF17
:100F1000469537952795A795F0405395C9F77EF4E8
:100F20001F16BA0B620B730B840BBAF09150A1F031
:100F3000FF0FBB1F661F771F881FC2F70EC0BA0FB7
:100F4000621F731F841F48F4879577956795B7953F
:100F5000F7959E3F08F0B3CF9395880F08F0992737
:100F6000EE0F9795879508950CD0EBC0E3D040F035
:100F7000DAD030F021F45F3F19F0CCC0511115C127
:100F8000CFC0F0D098F39923C9F35523B1F3951B43
:100F9000550BBB27AA2762177307840738F09F5F9A
:100FA0005F4F220F331F441FAA1FA9F333D00E2E09
:100FB0003AF0E0E830D091505040E695001CCAF776
:100FC00029D0FE2F27D0660F771F881FBB1F26173B
:100FD00037074807AB07B0E809F0BB0B802DBF010E
:100FE000FF2793585F4F2AF09E3F510568F092C04B
:100FF000DCC05F3FECF3983EDCF386957795679510
:10100000B795F7959F5FC9F7880F911D96958795BE
:1010100097F90895E1E0660F771F881FBB1F6217DD
:1010200073078407BA0720F0621B730B840BBA0B9B
:10103000EE1F88F7E095089504D06894B111B5C00B
:10104000089598D088F09F5790F0B92F9927B751FD
:10105000A0F0D1F0660F771F881F991F1AF0BA957C
:10106000C9F712C0B13081F09FD0B1E008959CC0A3
:10107000672F782F8827B85F39F0B93FCCF3869572
:1010800077956795B395D9F73EF4909580957095CF
:1010900061957F4F8F4F9F4F0895E89409C097FB4C
:1010A0003EF490958095709561957F4F8F4F9F4F3F
:1010B0009923A9F0F92F96E9BB279395F695879583
:1010C00077956795B795F111F8CFFAF4BB0F11F446
:1010D00060FF1BC06F5F7F4F8F4F9F4F16C08823ED
:1010E00011F096E911C0772321F09EE8872F762F23
:1010F00005C0662371F096E8862F70E060E02AF064
:101100009A95660F771F881FDAF7880F969587954F
:1011100097F9089597F99F6780E870E060E0089577
:101120009FEF80EC089500240A94161617061806FF
:101130000906089500240A941216130614060506DB
:101140000895092E0394000C11F4882352F0BB0F6C
:1011500040F4BF2B11F460FF04C06F5F7F4F8F4FCF
:101160009F4F089557FD9058440F551F59F05F3F0A
:1011700071F04795880F97FB991F61F09F3F79F0B9
:1011800087950895121613061406551FF2CF46953B
:10119000F1DF08C0161617061806991FF1CF8695BD
:1011A0007105610508940895E894BB2766277727A1
:1011B000CB0197F90895991B79E004C0991F961700
:1011C00008F0961B881F7A95C9F780950895AA1B89
:1011D000BB1B51E107C0AA1FBB1FA617B70710F022
:1011E000A61BB70B881F991F5A95A9F78095909554
:1011F000BC01CD01089597FB072E16F4009407D08B
:1012000077FD09D00E94E70807FC05D03EF49095D1
:1012100081959F4F0895709561957F4F0895052E94
:1012200097FB1EF400940E94260957FD07D00E94E8
:10123000390907FC03D04EF40C94260950954095CB
:10124000309521953F4F4F4F5F4F08959095809572
:10125000709561957F4F8F4F9F4F08950E94610950
:10126000A59F900DB49F900DA49F800D911D1124FA
:101270000895A1E21A2EAA1BBB1BFD010DC0AA1FD7
:10128000BB1FEE1FFF1FA217B307E407F50720F0EF
:10129000A21BB30BE40BF50B661F771F881F991F6A
:1012A0001A9469F760957095809590959B01AC01B3
:1012B000BD01CF010895EE0FFF1F0590F491E02DC1
:1012C0000994A29FB001B39FC001A39F700D811D1F
:1012D0001124911DB29F700D811D1124911D08953F
:1012E0008F929F92AF92BF92CF92DF92EF92FF9236
:1012F000CF93DF93EC01688179818A819B816115AD
:1013000071058105910521F464E279ED8BE597E0A3
:101310002DE133EF41E050E00E940F0949015A01ED
:101320009B01AC01A7EAB1E40E942E096B017C018C
:10133000ACEEB4EFA50194010E94D009C60ED71EF1
:10134000E81EF91EF7FE06C081E0C81AD108E108C0
:1013500080E8F80AC882D982EA82FB82C701B60116
:101360009F77DF91CF91FF90EF90DF90CF90BF906C
:10137000AF909F908F9008950E947009089580E02B
:1013800091E00E947009089560930001709301013B
:1013900080930201909303010895B7FF0C942E09E6
:0E13A0000E942E09821B930B0895F894FFCF34
:1013AE000100000001101010080810201010100885
:0613BE00082020400C5045
:00000001FF
