:100000000C9453000C947B000C947B000C947B00AC
:100010000C947B000C947B000C947B000C947B0074
:100020000C947B000C9419010C947B000C947B00C5
:100030000C947B000C94FA000C947B000C947B00D5
:100040000C947C030C947B000C947B000C947B0040
:100050000C947B000C947B000C947B000C947B0034
:100060000C947B000C947B0001020408102040805B
:1000700001020408102001020408102004040404F2
:100080000404040402020202020203030303030342
:1000900000000000250028002B00000000002400C4
:1000A00027002A00F10011241FBECFEFD8E0DEBFE9
:1000B000CDBF11E0A0E0B1E0E0E6FAE002C00590BB
:1000C0000D92A230B107D9F728E0A2E0B1E001C05B
:1000D0001D92A032B207E1F710E0C6EAD0E004C0FA
:1000E0002297FE010E942A05C43AD107C9F70E944F
:1000F0006D030C942E050C9400000F93CF93DF93A7
:10010000EC0180E10E941603BC01882777FD8095F1
:10011000982F0E949C0426E638E848E051E40E94AB
:1001200001040E9469047B836A8328813981261730
:10013000370771F180E00E94B8028A8103E026E06F
:1001400043E064E381500E94CA028A8124E041E0D6
:1001500067E383500E94CA028A8101E023E041E004
:1001600068E382500E94CA028A8103E024E041E0F1
:1001700067E38D5F0E94CA028A8101E023E041E0CB
:1001800068E38E5F0E94CA028A819B81998388837B
:10019000DF91CF910F91089581E00E94730280E07A
:1001A0000C94B8020F9302E02CE341E060E080E0A1
:1001B0000E94CA022CE341E060E083E00E94CA0290
:1001C0002CE341E060E087E70E94CA022CE341E0B3
:1001D00060E084E70E94CA0282E091E00F910C94F3
:1001E0007D001092030110920201109207011092FB
:1001F000060108951F920F920FB60F9211248F934C
:100200009F938FEF809312088AE580931008809166
:100210001308909114080196909314088093130882
:10022000109211089F918F910F900FBE0F901F9009
:1002300018951F920F920FB60F9211240F931F93D0
:100240002F934F935F938F939F93EF93FF9380919F
:100250001508E6E1F8E00081803031F0003059F413
:1002600021E026B9808309C00000000000000000E2
:100270000000000002C00A950083809110088823C6
:1002800021F081508093100820C1809111088C3397
:1002900008F01BC1009146000D5F07700E945001DD
:1002A000FF91EF913596E00F0994000000000000E7
:1002B00000000000000000009EE1899FF001112471
:1002C000E85FFE4F44E001910BB9049F0BB8049E18
:1002D0000BB8049E0BB801910BB9049F0BB8049E98
:1002E0000BB8049E0BB801910BB9049F0BB8049E88
:1002F0000BB8049E0BB801910BB9049F0BB8049E78
:100300000BB8049E0BB801910BB9049F0BB8049E67
:100310000BB8049E0BB801910BB9049F0BB8049E57
:100320000BB8049E0BB801910BB9049F0BB8049E47
:100330000BB8049E0BB801910BB9049F0BB8049E37
:100340000BB8049E0BB801910BB9049F0BB8049E27
:100350000BB8049E0BB801910BB9049F0BB8049E17
:100360000BB8049E0BB801910BB9049F0BB8049E07
:100370000BB8049E0BB801910BB9049F0BB8049EF7
:100380000BB8049E0BB801910BB9049F0BB8049EE7
:100390000BB8049E0BB801910BB9049F0BB8049ED7
:1003A0000BB8049E0BB801910BB9049F0BB8049EC7
:1003B0000BB8049E0BB801910BB9049F0BB8049EB7
:1003C0000BB8049E0BB801910BB9049F0BB8049EA7
:1003D0000BB8049E0BB801910BB9049F0BB8049E97
:1003E0000BB8049E0BB801910BB9049F0BB8049E87
:1003F0000BB8049E0BB801910BB9049F0BB8049E77
:100400000BB8049E0BB801910BB9049F0BB8049E66
:100410000BB8049E0BB801910BB9049F0BB8049E56
:100420000BB8049E0BB801910BB9049F0BB8049E46
:100430000BB8049E0BB801910BB9049F0BB8049E36
:100440000BB8049E0BB801910BB9049F0BB8049E26
:100450000BB8049E0BB801910BB9049F0BB8049E16
:100460000BB8049E0BB801910BB9049F0BB8049E06
:100470000BB8049E0BB801910BB9049F0BB8049EF6
:100480000BB8049E0BB801910BB9049F0BB8049EE6
:100490000BB8049E0BB801910BB9049F0BB8049ED6
:1004A0000BB8049E0BB8000000E00BB98091120855
:1004B0008F5F80931208853041F48FEF809312088C
:1004C000809111088F5F80931108FF91EF919F91A8
:1004D0008F915F914F912F911F910F910F900FBEB0
:1004E0000F901F901895CF93F894882321F061E026
:1004F0008EE00E94330310926E0014BCC1E0C5BDB3
:1005000017BC18BC16BC61E089E00E94330382E886
:10051000809380008DE18093810083E091E090934F
:100520008700809386001092890010928800C6BBD5
:10053000C0936F0061E083E00E94330383E2809305
:10054000B0008AE08093B1008FE38093B30087E02E
:100550008093B400C7BBC093700061E086E00E9446
:10056000330361E087E00E9433037894CF910895CC
:100570008370982F990F990F982B892F8295807FE0
:10058000892BE8E0F1E098E0E031F90711F0819380
:10059000FACF0895AF92BF92CF92DF92EF92FF927F
:1005A0000F931F93CF93DF93260F480F53E0E52E51
:1005B000F12C10E0621779F19EE1699FE0011124AE
:1005C000982F941731F1983710F56C3300F5A92F57
:1005D000B0E0FD01F595E795F595E795EC0FFD1F6A
:1005E000E85FFE4FA095B095A370AA0F67010A2E91
:1005F00001C0CC0C0A94EAF7C0943081C3225801A0
:1006000002C0AA0CBB1CAA95E2F7CA28C0829F5F51
:10061000D8CF6F5FCFCFDF91CF911F910F91FF9018
:10062000EF90DF90CF90BF90AF9008958E3008F09C
:100630008E5087702091000190E4299F9001112431
:10064000822B80937C0080917A00806480937A0072
:1006500080917A0086FDFCCF80917800209179000E
:1006600090E0922B0895CF93DF9390E0FC01E8593E
:10067000FF4F2491FC01E458FF4F8491882349F1F6
:1006800090E0880F991FFC01E656FF4FA591B491A9
:1006900080579F4FFC01C591D4919FB7611108C04D
:1006A000F8948C91209582238C93888182230AC0B0
:1006B000623051F4F8948C91322F309583238C93CF
:1006C0008881822B888304C0F8948C91822B8C9330
:1006D0009FBFDF91CF91089508950E94C6030E94A5
:1006E0006C030E94CC00C0E0D0E00E94D2002097B2
:1006F000E1F30E940000F9CF1F920F920FB60F9204
:1007000011242F933F938F939F93AF93BF93809127
:10071000180890911908A0911A08B0911B083091FF
:10072000170823E0230F2D3720F40196A11DB11DDA
:1007300005C026E8230F0296A11DB11D20931708BE
:100740008093180890931908A0931A08B0931B0877
:1007500080911C0890911D08A0911E08B0911F085F
:100760000196A11DB11D80931C0890931D08A093B4
:100770001E08B0931F08BF91AF919F918F913F9139
:100780002F910F900FBE0F901F901895789484B5FD
:10079000826084BD84B5816084BD85B5826085BD7D
:1007A00085B5816085BDEEE6F0E080818160808363
:1007B000E1E8F0E010828081826080838081816046
:1007C0008083E0E8F0E0808181608083E1EBF0E00D
:1007D000808184608083E0EBF0E0808181608083B1
:1007E000EAE7F0E08081846080838081826080839A
:1007F0008081816080838081806880831092C100C5
:1008000008950CD0EBC0E3D040F0DAD030F021F402
:100810005F3F19F0CCC0511115C1CFC0F0D098F393
:100820009923C9F35523B1F3951B550BBB27AA2771
:1008300062177307840738F09F5F5F4F220F331FE3
:10084000441FAA1FA9F333D00E2E3AF0E0E830D0AF
:1008500091505040E695001CCAF729D0FE2F27D0B2
:10086000660F771F881FBB1F261737074807AB0780
:10087000B0E809F0BB0B802DBF01FF2793585F4FF5
:100880002AF09E3F510568F092C0DCC05F3FECF358
:10089000983EDCF3869577956795B795F7959F5FBA
:1008A000C9F7880F911D9695879597F90895E1E00E
:1008B000660F771F881FBB1F621773078407BA076D
:1008C00020F0621B730B840BBA0BEE1F88F7E095C8
:1008D000089504D06894B111B5C0089598D088F0F7
:1008E0009F5790F0B92F9927B751A0F0D1F0660F1C
:1008F000771F881F991F1AF0BA95C9F712C0B13037
:1009000081F09FD0B1E008959CC0672F782F882791
:10091000B85F39F0B93FCCF3869577956795B39575
:10092000D9F73EF490958095709561957F4F8F4FE4
:100930009F4F0895E89409C097FB3EF490958095E9
:10094000709561957F4F8F4F9F4F9923A9F0F92F95
:1009500096E9BB279395F695879577956795B79513
:10096000F111F8CFFAF4BB0F11F460FF1BC06F5FF9
:100970007F4F8F4F9F4F16C0882311F096E911C00B
:10098000772321F09EE8872F762F05C0662371F02C
:1009900096E8862F70E060E02AF09A95660F771F40
:1009A000881FDAF7880F9695879597F9089597F934
:1009B0009F6780E870E060E008959FEF80EC089505
:1009C00000240A941616170618060906089500242E
:1009D0000A9412161306140605060895092E0394A8
:1009E000000C11F4882352F0BB0F40F4BF2B11F41C
:1009F00060FF04C06F5F7F4F8F4F9F4F089557FD7B
:100A00009058440F551F59F05F3F71F04795880F7C
:100A100097FB991F61F09F3F79F087950895121613
:100A200013061406551FF2CF4695F1DF08C01616BF
:100A300017061806991FF1CF869571056105089470
:100A40000895E894BB2766277727CB0197F9089587
:100A5000EE0FFF1F0590F491E02D0994F894FFCF5D
:020A6000010093
:00000001FF
